:020000040800F2
:1000000060C2012089020008452C00083D2C000830
:10001000412C0008352C0008992E00080000000033
:10002000000000000000000000000000B52C0008E7
:10003000392C000800000000492C0008B92C0008E9
:10004000A3020008A3020008A30200087D2C0008F8
:10005000A3020008A3020008A3020008A3020008EC
:10006000A3020008A3020008A3020008A3020008DC
:10007000A3020008A3020008A3020008A3020008CC
:10008000A3020008A3020008A3020008A3020008BC
:10009000A3020008A3020008A3020008A3020008AC
:1000A000A3020008A3020008A3020008A30200089C
:1000B000A3020008A3020008A3020008A30200088C
:1000C000A3020008A3020008A3020008A30200087C
:1000D000A3020008112E0008A3020008A3020008D2
:1000E000A30200084D2C0008A3020008A302000888
:1000F000A3020008A3020008A3020008A30200084C
:10010000A3020008AD2C0008A3020008A302000807
:10011000A3020008A3020008A3020008912D000812
:10012000A3020008A3020008A3020008A30200081B
:10013000A3020008A3020008A3020008A30200080B
:10014000A3020008A3020008A3020008A3020008FB
:10015000A3020008A3020008A3020008A3020008EB
:10016000A3020008A3020008A3020008A3020008DB
:10017000A3020008A3020008A30200080000000078
:10018000A3020008A3020008A3020008A3020008BB
:10019000A3020008A3020008A30200080000000058
:1001A000A3020008A3020008A302000800F002F85E
:1001B00000F05BF80AA090E8000C82448344AAF1A6
:1001C0000107DA4501D100F050F8AFF2090EBAE8A4
:1001D0000F0013F0010F18BFFB1A43F0010318477B
:1001E0003C9103005C910300103A24BF78C878C1A9
:1001F000FAD8520724BF30C830C144BF04680C602D
:10020000704700000023002400250026103A28BF74
:1002100078C1FBD8520728BF30C148BF0B60704778
:1002200066290CF00985642900F03681752900F0F3
:100230003381782900F06C81732901F0A4800020BB
:1002400070471FB50CF0EBFC01F0C6FB040000206A
:1002500000210CF06BFA401C6060002000210CF0C3
:100260004FFAE0601FBD10B510BD01F03BFE114616
:10027000FFF7E7FF06F000FB02F08CF803B4FFF78E
:10028000F2FF03BC02F05EFF0948804709480047BF
:10029000FEE7FEE7FEE7FEE7FEE7FEE7FEE7FEE736
:1002A000FEE7FEE704480549054A064B7047000093
:1002B000BD2C0008AD01000860BA012060C2012019
:1002C00060BE012060BE0120704753EA020C00F0BE
:1002D00069802DE9F04B4FF00006002B1FBFB3FAE9
:1002E00083F503FA05F424FA05F65E4012BF1643BF
:1002F000B2FA82F502FA05F4C5F120051EBF22FA12
:1003000005FC44EA0C04203556EA044C4FEA144438
:1003100018BF641C4FF000084FF00009904271EBC9
:10032000030C39D3002919BFB1FA81F701FA07F696
:10033000B0FA80F700FA07F6C7F120071EBF20FACF
:1003400007FC46EA0C062037B6FBF4FCA7EB0507D2
:10035000103F07F01F0BCBF120060CFA0BFB2CFA19
:1003600006F644BFB3460026202FA4BF5E464FF0DA
:10037000000B5BEA060C08BF4FF0010B19EB0B09F1
:10038000ABFB027C48EB0608C01B06FB02CC0BFB58
:1003900003CC71EB0C01C1E70B46024641464846CF
:1003A000BDE8F08B13B54FF000004FF00001AFF344
:1003B0000080BDE81C4070470FB4044910B503AA83
:1003C000029800F0E5FF10BC5DF814FB440000202B
:1003D0000FB41CB5074B06AA7B44694600900598EC
:1003E00000F0A7FF0020694600F0B6FF1CBC5DF8D6
:1003F00014FB00007D0F000070B50446856900689D
:10040000C10601D5302600E02026C00707D070BD08
:10041000D4E9012130469047206A401C20626D1EBD
:10042000F6D570BD70B5044685690078C00707D160
:1004300070BDD4E9012120209047206A401C206231
:100440006D1EF6D570BD70B50C460546012A05D067
:100450002878800600D5EA69002302E0012305E040
:100460005B1C934202D2E05C0028F9D1A869E6182F
:10047000C01AA861286A184428622846FFF7BCFF02
:1004800004E0D5E9012114F8010B9047B442F8D3F8
:100490002846FFF7C7FF70BD2DE9F041064600244E
:1004A00010687529314616A510D0AFF300800028DA
:1004B00002DA404213A507E031688A0701D512A588
:1004C00002E0490704D511A5012401E0AFF3008043
:1004D00000210A2206F1240709E0B0FBF2FCB0FB80
:1004E000F2F302FB1C00303078541846491C0028F7
:1004F000F3D123462A463046BDE8F04100F0ACBCBB
:10050000000000002D0000002B0000002000000073
:1005100070B504460D4621461068AFF3008021886F
:10052000090502D50F4A7A4402E00E4A7A440E3297
:10053000002104F1240305E000F00F060009965D98
:100540005E54491C0028F7D120780023000704D509
:10055000702D02D009B1022311322046BDE870404F
:1005600000F07ABC168D03002DE9F05F8946044641
:100570004FF0000ADFF874B1FB44C0F820A0204619
:10058000E1688847002874D0252806D0D4E90121E5
:100590009047206A401C2062F1E700265F46204613
:1005A000E16888472028054607DB312D05D27819F8
:1005B00010F8200C08B10643F1E7B00701D526F08A
:1005C0000406C4F81CA00027C4F818A02A2D09D0DE
:1005D000284602F0B0FD38B304EB8708303DC8F878
:1005E000185019E059F8041B204604EB870291616A
:1005F000E1688847012F054618D1E069002820DA14
:1006000026F020061DE0D8F8180000EB800005EB6E
:1006100040003038C8F818002046E1688847054691
:1006200002F089FD0028EED1012F0AD02E2D08D12D
:100630002046E16888477F1C0546022F46F02006C9
:10064000C4DBA069002803DA404246F00106A0613D
:10065000F00701D026F010066C2D0BD0682D09D0C4
:100660004C2D39D06A2D35D0742D35D07A2D33D01C
:1006700016E038E0E1682F4620468847B842054634
:1006800009D16C2F26D04FF48060E16806432046E4
:100690008847054604E06C2F1AD04FF4807006435B
:1006A0000DB3A5F14100192802D8203546F40066A3
:1006B0004A462946204626604E46FFF7B1FD80B1E6
:1006C00001280BD0F61D26F0070000F1080956E7B7
:1006D0004020E4E78020D8E70020D6E706F10409AF
:1006E0004DE7284652E7206ABDE8F09FEC8C0300F6
:1006F0000FB400B58DB010A9099000910B904FF088
:10070000FF300A9000200C90064878440690064876
:1007100078446A4607900F9909A801F0DBF80DB0FC
:100720005DF814FBE7110000FF1100002DE9FF5FE9
:100730001D464FF0FF3B91464FF000085F46D5E95C
:100740000146A96901987F1C8847296A8246884723
:100750000028F6D1BAF1FF3F0CD0002E24F4C0647B
:1007600019DD600614D5BAF12B0F09D0BAF12D0F9F
:100770000ED103E0584604B0BDE8F09F44F4806415
:10078000A96901987F1C8847761E8246002E02DDEB
:10079000BAF1300F03D0B9F1000F26D032E0A969C9
:1007A000761E01987F1C44F400748847002E824610
:1007B00005DDBAF1780F06D0BAF1580F03D0B9F1C0
:1007C000000F10D01EE0B9F1000F02D0B9F1100FE8
:1007D00018D1A969761E01987F1C24F400748847FB
:1007E0008246102002E0082000E00A20814609E04D
:1007F000A96908FB0908761E01987F1C44F400745F
:1008000088478246002E05DD4946504600F0D2FD5D
:100810000028EDDAE96901988847A00502D46FF055
:100820000100A8E7E00725D1600613D5600502D5D1
:10083000C8F1000000E0404629680A1D2A600968E6
:10084000220501D5087015E0220701D5088011E0C6
:1008500008600FE02868011D29600068210502D5A5
:1008600080F8008006E0210702D5A0F8008001E0B2
:10087000C0F8008038467EE7401ECAB210F8011F5B
:100880008A4202D00029F9D10020704730B50546D0
:100890000B462A4613F8014B12F8010B08B1A0428F
:1008A000F8D01CB1002802D06D1CF1E7284630BDFD
:1008B00040EA010310B59B070FD1042A0DD310C8DD
:1008C00008C9121F9C42F8D020BA19BA884201D92F
:1008D000012010BD4FF0FF3010BD1AB1D30703D077
:1008E000521C07E0002010BD10F8013B11F8014B2D
:1008F0001B1B07D110F8013B11F8014B1B1B01D149
:10090000921EF1D1184610BD10B5431C02E010F83C
:10091000011B71B18107FAD14FF0013202C88C1A64
:100920008C4314EAC211F9D0C01A0A0603D0C01EC3
:1009300010BDC01A10BD0A0401D0801E10BD0902EE
:10094000FCD0401E10BD40EA010370B59B072ED1BC
:100950004FF00136042A2AD308C810C99D1B9D43B5
:10096000121F15EAC61517D0D8B2E1B2401A50EAE4
:10097000056110D198B2A1B2401A50EA05410AD1DE
:1009800023F07F4024F07F41401A50EA052102D134
:10099000180EA0EB146070BDA342DBD018BA21BAC8
:1009A000884201D9012070BD4FF0FF3070BD0AB9F7
:1009B000002070BD10F8013B11F8014B63B1A34258
:1009C0000AD1521E08D010F8013B11F8014B1BB19F
:1009D000A34201D1521EEDD1181B70BD421E12F868
:1009E000013F002BFBD111F8013B002B02F8013B2A
:1009F000F9D17047032A40F2308010F0030C00F068
:100A0000158011F8013BBCF1020F624498BF11F848
:100A100001CB00F8013B38BF11F8013BA2F1040201
:100A200098BF00F801CB38BF00F8013B11F0030379
:100A300000F02580083AC0F0088051F8043B083ADD
:100A400051F804CBA0E80810F5E7121D5CBF51F87F
:100A5000043B40F8043BAFF30080D20724BF11F8F9
:100A6000013B11F801CB48BF11F8012B24BF00F85E
:100A7000013B00F801CB48BF00F8012B704710B5CF
:100A8000203AC0F00B80B1E81850203AA0E8185086
:100A9000B1E81850A0E81850BFF4F5AF5FEA027C47
:100AA00024BFB1E81850A0E8185044BF18C918C0B6
:100AB000BDE810405FEA827C24BF51F8043B40F857
:100AC000043B08BF7047D20728BF31F8023B48BF3C
:100AD00011F8012B28BF20F8023B48BF00F8012B7A
:100AE000704702F0FF0343EA032242EA024200F0A9
:100AF00002B84FF000020429C0F0128010F0030C7D
:100B000000F01B80CCF1040CBCF1020F18BF00F800
:100B1000012BA8BF20F8022BA1EB0C0100F00DB8AF
:100B20005FEAC17C24BF00F8012B00F8012B48BF0D
:100B300000F8012B70474FF0000200B513469446B1
:100B40009646203922BFA0E80C50A0E80C50B1F125
:100B50002001BFF4F7AF090728BFA0E80C5048BF39
:100B60000CC05DF804EB890028BF40F8042B08BFD7
:100B7000704748BF20F8022B11F0804F18BF00F8D3
:100B8000012B70474FF0013C50F8042B51F8043B07
:100B90009A4221D1A2EB0C03934313EACC1317D151
:100BA00050F8042B51F8043B9A4215D1A2EB0C03E8
:100BB000934313EACC130BD150F8042B51F8043BA8
:100BC0009A4209D1A2EB0C03934313EACC13DBD076
:100BD0004FF00000704700BFD01A01BAB1FA81F19E
:100BE00001F0180122FA01F0CB40C1F12001DBB283
:100BF000C0B2C01A2CFA01F3D11A914311EAC31101
:100C0000E6D1704710B503681C1404EB21449BB275
:100C100089B2194494FBF2F302FB134394FBF2F400
:100C200001EB034393FBF2F102FB113193FBF2F36F
:100C300001E05B1E11440029FBDB016003EB044073
:100C400010BDF0B504464FF0FF3585B00068049044
:100C500060680290A0680390E068019020690090AD
:100C6000666906F18040B0F1004F7CD83C2200213B
:100C700004A8FFF7C7FF3C22014602A8FFF7C2FF06
:100C80001822014603A8FFF7BDFF411E40F2B552EE
:100C900001A8FFF7B7FF0C22074668460021FFF7BF
:100CA000B1FF414B00EB8700304400267B4411E04C
:100CB000511A01910099491C0229009102D00C2976
:100CC00008D105E0810705D00199491C019101E097
:100CD000401C00960099019A595C9142E8DD009908
:100CE000012906D11C2A04D1810702D00221CDE9B5
:100CF0000016A0F146018B293CD2DDE900610022FB
:100D000002E09F5C521C3944B242FADB012E02DD44
:100D1000820700D0491E40F2B55340F26D16C2174B
:100D200000EB927292105A4300F0030303FB062279
:100D300083070A4400D1521E039E02EB4203049F24
:100D400006EBC303029EC3EB031306EB8303174EAC
:100D500033441E149BB2C6EB0616C3EB0313B60056
:100D600007EB830300E005E006EB134666F31F4341
:100D7000360C02D0284605B0F0BD80C4029E40C4A7
:100D8000039E40C4019E761C44F80C6B009E44E90F
:100D900002600720521C92FBF0F600FB162084E84C
:100DA00023001846E7E70000C9850300A039CEFDFF
:100DB000704770477047704730B5B0F10A024FEA8C
:100DC000900E71F100034EEA817EB0EB0E0061EBF4
:100DD00091014FEA101E4EEA017E10EB0E0041EB2E
:100DE00011114FEA102E4EEA016E10EB0E0041EB8E
:100DF00011214FEA104E4EEA014E10EB0E0041EB6E
:100E00001141401841F100014FEAD00040EA417021
:100E10004FEAD10110EB80054FEA810444EA907457
:100E200044EB01046D1944EB0404521BA3414FF041
:100E3000000348BF0A3200D530BD401C41F100011B
:100E400030BD10B500F0CCFD006810BD10B50446F3
:100E500000F0C6FD046010BD2DE9F0470D4699462F
:100E60009246044600F124080168880604D5E0692A
:100E700021F01001216000E00120A84201DD471BA4
:100E800000E00027A1697A1902EB0900081AA061A5
:100E90002078C00602D42046FFF7AEFA002608E00C
:100EA000D4E901211AF806009047206A401C761CFC
:100EB00020624E45F4DB2078C0060AD52046FFF7B5
:100EC0009BFA06E0D4E9012130209047206A401CBB
:100ED0002062381EA7F10107F4DC07E0D4E9012104
:100EE00018F805009047206A401C2062281EA5F1D2
:100EF0000105F3DC2046FFF795FA2078000602D5BD
:100F00000220BDE8F0870120FBE770472DE9FF4F85
:100F10000C461E464FF0FF378BB0D2E90001DDF8DA
:100F200060800A908A46C1F30A5505B93D46002102
:100F300008464FF00000BAF1000F00F4400005DA57
:100F400000EB80004FF4400101EA50004FEA905955
:100F5000B9F1010F00DDB9460A9850EA4A000ED0F7
:100F600044F61050A5F2FF3545432F14B8F1000F99
:100F70001ED07542291E1EDDC9F100021CE0B8F129
:100F8000010F4FF0000001D0302103E0F24305E0F3
:100F90002154401CB042FBDB30460022002121548A
:100FA0000B99C1F80880C1E900200FB0BDE8F08FAF
:100FB000BD1B6D1CDEE74A4600DA694206A800F058
:100FC00017FF06AB93E8070003AB83E80700504622
:100FD0000A9901F0FBF98DE80700A0F500501F38D1
:100FE00000900398002D0ADD42F21F014A46084492
:100FF000002303A90390684601F0A6FC09E0A0F5D0
:1010000000504A461F38002303A90390684601F0A8
:10101000C5FC8DE807000004000C03D04FF0FF3042
:10102000410800E01046B8F1000F03D00022009202
:1010300015461EE0751E05D4FFF7BEFE3032625520
:101040006D1EF9D5B3460122084302D000227F1C51
:1010500004E02078302801D100227F1E002A099761
:1010600084D01DE0112D07DAFFF7A6FE303262555D
:101070006D1C50EA0102F5D1084302D00098C8B1B6
:101080000EE00021681E05E0235C625C635422547C
:10109000401E491C8142F7DBAB46A81B401E09904D
:1010A000002004F80B000B98099AC0F80880C0E9EA
:1010B000002B7AE711264FF0000857E72DE9F04F93
:1010C00088460446D21D22F0070191B0D1E9000103
:1010D000CDE90A0101F0E2FE02460B98C00F01D0F3
:1010E0002D2007E02068810701D52B2002E0202178
:1010F00001EAC000032A099001D0072A05DB034654
:101100004146204600F07AFC0BE12078800601D5AC
:10111000E06900E00620B8F1650F814606D0B8F11D
:10112000660F18D0B8F1670F70D131E00020B9F127
:10113000110F009001DB112301E009F101030AAA5C
:1011400001A90CA8FFF7E2FEDDE90C70002609F109
:101150000105834647E001204B4600904FF00047D1
:101160000AAA01A90CA8FFF7D1FEDDE90DB00C9980
:101170005D46002610B909F101000D18B9EB050014
:1011800003D4C0F1FF3609F10105A5EB09002BE0FE
:10119000B9F1010F01DA4FF001090020B9F1110F87
:1011A0000090484601DD112300E003460AAA01A988
:1011B0000CA8FFF7ABFEDDE90C704D460026834618
:1011C000207800070AD4AB4500DA5D4601A8012D5E
:1011D00004DD411911F8011C302907D04F4502DA0E
:1011E00017F1040F04DA012082460FE06D1EEEE7CE
:1011F000002F02DCED1B3E4403E0781CA84200DD1A
:101200007D1CB81B00F1010A4FF000472078000751
:1012100003D4AA4501DB4FF0FF3A0021B7F1004F9C
:101220000DF143088DF8431024D002202B23002F0A
:1012300001DA7F422D230A21021EA0F1010000DC09
:101240005FB197FBF1FC97FBF1F201FB1C7C1746A9
:101250000CF1300C08F801CDEEE7A8F101000370A5
:101260002188090501D5452100E06521A0F101088B
:1012700000F8011C09980FA9A1EB0807FF1D00B198
:101280000120411901EBEA70A1693844081A401E97
:10129000A0612078C00602D42046FFF7ADF8099877
:1012A00028B1D4E901219047206A401C20622078AF
:1012B000C00622D52046FFF79FF81EE0002E04DB73
:1012C000B34502DD01A8805D00E03020D4E90121B2
:1012D0009047206A401C2062761CAAF101005FEA58
:1012E000000A0AD100F078FBC0680168405CD4E9CC
:1012F00001219047206A401C2062281EA5F10105AB
:10130000DCDC07E0D4E9012118F8010B9047206AE2
:10131000401C2062381EA7F10107F3DC2046FFF7CE
:1013200081F8032011B041E601694A1C0261087886
:10133000704700B58FB0CDE9013100210591054915
:101340007944CDE9031011466846FFF70DF90FB057
:1013500000BD0000E5FFFFFF0A6802F8010B0A600C
:10136000704710B5436913B1AFF3008001E0FFF798
:101370006AF8012010BD127800F124010A700022E1
:101380004A700122EDE711684FF0FF32E9E70000F3
:10139000074B70B50D467B44FFF7CBFF044628464C
:1013A00000F098FD10B14FF0FF3070BD204670BDC9
:1013B000FF4800003A2800D2303820F02002412AAD
:1013C00001D3A2F13700884201D34FF0FF307047BC
:1013D0002DE9FF4F06468BB00878FF2806D0491C40
:1013E0002D2805D000244FF0000908E000200CE073
:1013F0000124F8E709EB8903491C00EB430908784D
:10140000FF28F7D114B1C9F10000814610780025FA
:101410002C46AA4629462D2801D02B2804D1521C3F
:101420002D2813D0002082468B461078FF280FD03D
:101430004FF0000C0A21521CA5FB017804FB01812E
:1014400005FB0C11C5194BEB0104EEE70120EAE79F
:10145000002108464FF00000BAF1000F02D000EB67
:1014600080004008C0F38157012F01DD4FF0FF37A6
:101470000E9955EA040009EB01080BD04FF0020960
:1014800018F5FA7F16DA4FEACA70002F706008DD8F
:10149000012007E04FEACA70C6E900B00FB0BDE80E
:1014A000F08F0020306000F09BFAC0F80090182107
:1014B000084616E0B8F5FA7F18DD002F02DAF74883
:1014C000784401E0F6487844D0E90010C6E90010FD
:1014D00040EACA70706000F083FAC0F800901421EE
:1014E00008460FB0BDE8F04F0BF0A3BB0021084643
:1014F0004FF00000B8F10001099002DAC7F10002D4
:1015000000E03A4601DAC8F1000106A800F070FCDC
:1015100006AB93E8070003AB83E8070044F23E0004
:101520005BEA04010090584604D144F21E012C46A7
:101530005D460091210C0904014306D10099240461
:1015400044EA15442D041039009104F07F41014311
:1015500006D10099240244EA15642D02083900914D
:1015600004F07041014306D10099240144EA157446
:101570002D01091F009104F04041014306D100995B
:10158000A40044EA9574AD00891E009104F0004166
:10159000084304D100986D196441401E00904FF03B
:1015A00001033A466846B8F1000FCDE9014503A9A9
:1015B00002DD01F008FA01E001F0DBF9BAF1000FF9
:1015C00004460D4601D084F00044002108464FF047
:1015D0000000099940F2FF77484010F00C0F07D146
:1015E00024F00040284303D0C4F30A50B84212D17B
:1015F00000F0F6F9C0F80090C4F30A50B8420AD1DE
:10160000A8487844D0E90010C6E9001004F0004171
:101610000843706042E7C6E900543FE72DE9FF4FF9
:101620001F464FF0000A4FF0FF38454691B0D7E90A
:101630000146CDF83CA000F0CFF9C0680168405CDD
:101640001090B96912986D1C8847396A814688479D
:101650000028F6D1B9F1FF3F0AD0002E24F4D0645F
:1016600011DDB9F12B0F08D0B9F12D0F0BD102E02C
:10167000404615B013E744F48064B96912986D1CB4
:101680008847761E8146600504A901D52D2000E01B
:101690002B20002E01F1010B0DF130088DF8100008
:1016A0003FDDB9F1690F08D0B9F1490F05D0B9F1A3
:1016B0006E0F02D0B9F14E0F1CD13B4601A8009528
:1016C00080E85002DDE912126FF002000BF01AFB05
:1016D000C11CCED10EE0B96912986D1C88478146B5
:1016E0001398761E44F4007405600F98401C002E79
:1016F0000F9016DDB9F1300FEDD0B9F1780F02D0AF
:10170000B9F1580F0DD10F9801280AD13B46CDE908
:101710000054DDE91212001F02960BF0F1FAC11C11
:10172000A7D1109989453ED144F0800406E0139971
:10173000681CAAF1010A44F400740860B9696D1CC0
:101740001298761E884730288146F0D02BE01099F9
:10175000894505D1200603D4761E44F0800418E0A4
:10176000484601F0E8FC08B3761E0DF123018B45D5
:1017700044F4007408D2A9F130000BF8010B2006E4
:1017800007D5AAF1010003E0200602D40AF1010006
:101790008246A00502D51399681C0860B9691298A1
:1017A0006D1C88478146002ED1DC53E0002E51DDB0
:1017B000B9F1650F02D0B9F1450F4BD1A00549D55C
:1017C000B9696D1C1298761E24F440748847002E67
:1017D00081460CDD2B2804D0B9F12D0F07D144F43C
:1017E0008074B96912986D1C8847761E8146E005A1
:1017F00001D52D2100E02B2108F8011BCDF8008038
:1018000021E0761E0DF13901884544F400740CD2B4
:10181000A9F1300010F0FF0088F8000002D1009913
:10182000884509D908F1010806E0E00501D51E4800
:1018300001E042F20F708246B96912986D1C884728
:10184000814613980560002E04DD484601F073FCC4
:101850000028D6D1F96912988847FF2053468BF8A3
:10186000000088F8000000200A900B9004AA0CA940
:101870000AA8FFF7ADFDA00502D46FF00100F8E65D
:1018800014F0240F12D0E0071CD13868DDE90A12E9
:10189000031D3B600068C0E9001213E0807E030076
:1018A000727E0300367D0300F1D8FFFF0AA9684667
:1018B00001F02EFCE00705D13868009A011D39605F
:1018C000006802602846D4E602681144137801607B
:1018D00018467047D16005497944516104497944FB
:1018E000116200211161114600F0C8B8EDFFFFFF41
:1018F00007010000426842B1016811F8013B23B1C1
:10190000521EC0E90012184670470121C160881EAE
:10191000704742685AB1C368016843B983688B4213
:1019200005D0491E521CC0E90012002070474FF03C
:10193000FF3070470FB4002300B589B00CA90091A7
:101940000B99CB60214B7B440693214B7B4407933F
:1019500004236FF00042CDE901321E4A7A446B46FF
:101960000892024600200BF0C9F909B05DF814FB9B
:1019700070B506464FF0FF3015460C46324686B02D
:101980000091CDE9010169460020049004A8FFF709
:10199000D1FF02460498211825B108B1084600E09D
:1019A00020462860049800280DD0002A02DD009807
:1019B000884208D03246081B69460094CDE90104EC
:1019C00004A8FFF7B7FF06B070BD0000ABFFFFFF34
:1019D000C3FFFFFF890000000048704720BA0120C4
:1019E0000048704700BA012010B5044600F0A0FA84
:1019F0000068005D00F0010010BD00002DE9F0411D
:101A00001F46044603260168072A01F4006004DB30
:101A100008B116A505E016A503E008B115A500E07C
:101A200015A521F010002060A069C01EA0610FB1B3
:101A3000401EA0612046FEF7DFFC4FB1D4E9012132
:101A400038469047206A401C2062C01C206206E095
:101A5000206AFAE7D4E9012115F8010B9047761EB8
:101A6000F8D22046FEF7DEFCBDE8F0814E414E0084
:101A70006E616E00494E4600696E66002DE9F34FB7
:101A80004FF0000A0C4656468DB001200C9001F133
:101A90000C000B9062690B9801219047051E2DD018
:101AA000252D2CD0216A8847C0B162690B9801218D
:101AB0009047216A88470028F7D16269411E0B9838
:101AC000904700E0761CA1690D988847216A8847F5
:101AD0000028F7D1E1690D988847DBE7A1690D98E7
:101AE0008847A842074601D1761CD3E7E1690D98E3
:101AF00088477F1C02D1BAF1000F6FD06CE1626998
:101B00000B9800273D46394690472A2804D1626940
:101B10000B98012190470125DFF8D08262690B986C
:101B200001219047A0F130010A290AD24745E5DC9E
:101B300007EB870100EB4107303FDFD445F010058C
:101B4000ECE7E90601D46FF000476C280AD04C2876
:101B500014D0682815D06A280DD074281CD07A2893
:101B60001AD01DE062690B98012190476C2802D0C1
:101B700045F0040514E045F002050DE045F02005B0
:101B80000AE062690B9801219047682802D045F06D
:101B9000080505E045F4006562690B98012190474E
:101BA000C4E9015765283DD019DC58287AD00CDCEF
:101BB000452837D004DC252826D041289ED131E0A5
:101BC00046282FD0472899D12CE05B2877D0612870
:101BD00028D063287CD0642823D15AE0F7E06F280E
:101BE00048D008DC66281DD067281BD0692821D082
:101BF0006E2816D127E0702845D0732868D0752844
:101C000047D078280DD14DE0A1690D988847252847
:101C100005463FF469AFE1690D9888476D1C3FF4B4
:101C20006AAFD9E00D9923466A466FF001000BF0C8
:101C300065F8C6E045F0400023464FF000026060C2
:101C4000A80736D43EE0E8077FF447AF2068011DBF
:101C500021600068290501D506701BE7290701D519
:101C6000068017E7A90703D5F117C0E9006111E75E
:101C700006600FE745F0400023464FF00802606021
:101C8000A80716D41EE040F60E0125EA01006060A8
:101C900016E045F0400023464FF00A026060A807B6
:101CA00007D40FE045F040006060A80708D5234640
:101CB00010220D996FF00100AFF3008081E007E082
:101CC000102223460D996FF00100FEF72FFD78E0FA
:101CD0004FF0000963284F46C8464B46CB4602D01A
:101CE0005B2807D039E02079C00601D40120A0602C
:101CF000012732E06269D4F80CB00B9801219047BB
:101D00005E2807D14FF0010949466269D4F80CB04A
:101D10000B989047216939B900210A4603AB43F873
:101D20002120491C0829FADBD8B3216949B308F1FD
:101D3000010862690B98012190475D28F4D1B9F13F
:101D4000000F09D0002003A951F82020D24341F808
:101D50002020401C0828F7DB03AB206900282079ED
:101D60004FEA40701ED05B462246CDF80080CDE998
:101D700001970D9900286FF0010020DAAFF3008081
:101D80001FE0C11703AA00EBD1614B1121F01F0125
:101D900002EB8302411A1368012088400343136059
:101DA000C7E719E00D99224600286FF0010000975F
:101DB00002DAAFF3008004E0AFF3008001E0AFF39C
:101DC000008000280ADA401C06D10C9820B14FF0A0
:101DD000FF300FB0BDE8F08F5046FAE7E90701D1B8
:101DE0000AF1010A064400200C9053E6CCCCCC0C3E
:101DF0002DE9F047814616468AB0354878440DC82B
:101E00008DE80D0032487844801C03AC0DC884E88E
:101E10000D0041F69B300844372190FBF1F290FB16
:101E2000F1F5A5F1800501FB12041B3C02D56442CB
:101E3000012000E00020DFF898A080460027FA4447
:101E4000AAF1BE0A0EE0E0070AD03246684607EB68
:101E5000470101230AEB810100F0A0FD8DE8070096
:101E600064107F1C002CEED1194F7F44AE3F19E067
:101E7000E80715D007EB04100DF1180A90E80E00E2
:101E80008AE80E00C068F04201D1981908903246E5
:101E9000012306A903A800F081FD03AB83E8070036
:101EA0006D10641C002DE3D14FF0010332466946EA
:101EB000B8F1000F03A802D000F046FD01E000F0E9
:101EC0006DFDC9E90001C9F808200AB0BDE8F08736
:101ED00004750300007B00F08000704700487047E5
:101EE00000BA01207546FFF7F9FFAE4605006946C6
:101EF000534620F00700854618B020B5FEF7D2F90A
:101F0000BDE820404FF000064FF000074FF00008FA
:101F10004FF0000B21F00701AC46ACE8C009ACE87B
:101F2000C009ACE8C009ACE8C0098D4670470000A4
:101F300010B5FFF751FD001D10BD00BFF1A7000057
:101F40002DE9FF4F1F464FF03C0987B04FF000428C
:101F5000DDE9141001F10108DDF858A002EA405053
:101F60000390002005908346054604460490B96915
:101F7000461E08988847AAF1010A0290BAF1000F9C
:101F80003BDD02982E2815D01021FFF713FA002808
:101F90002EDB4FF0010B0599014317D0B9F1000F6B
:101FA0000BDB4A46C11700F0FEF905430C43A9F1CB
:101FB000040905E0012004900BE008B145F001059B
:101FC00001200590049820B9361D02E0049800B164
:101FD000361FB969089808F101088847BBF1000F5E
:101FE000AAF1010A0290C9D00999C1F80080C5E799
:101FF0000298702808D0502806D0F96908988847B8
:10200000BBF1000F14D04FE0002002900120BBF183
:10201000000F049009D0B969089808F101088847B1
:10202000AAF10109B9F1000F07DCF969089888479E
:102030006FF001000BB0BDE8F08F2B2804D02D28E5
:102040000CD14FF0FF300490B969089808F10108ED
:102050008847A9F10109B9F1000FE6DD411CE4D080
:102060000A21FFF7A7F90028DFDB029908F1010830
:1020700001EB810100EB41000290B96908988847A3
:102080000A21FFF797F9099AA9F10109B9F1000F9F
:10209000C2F8008001DD0028E7DAF969089888476E
:1020A0000499029800FB016655EA040004D004F08C
:1020B0004041090002D006E0039898E0A40044EAF9
:1020C0009574AD00B61E04F00041080002D16D19F0
:1020D0006441761E159810F0240F03D04FF00B09C1
:1020E0005C4803E04FF028096FF07D0082465645BA
:1020F00007DAAAEB06018944B9F1410F01DD4FF07F
:10210000410901200021A9F1010200F04CF9024629
:1021100028400B462140084301D0012100E0002166
:10212000501E029143F1FF3128402140084301D065
:10213000012000E000200299834651EA0B014FD0B4
:10214000002108464FF00000039900F4400039B127
:1021500000EB80004FF4400100EBD07001EA60001A
:102160008015012802DD4FF0FF3000E013D0401C45
:1021700036D0029860B3BBF1000F0CD14A46012063
:10218000002100F010F928402140084301D001202F
:1021900000E00020E0B101204A46002100F003F9F0
:1021A000034640190A4661412D1A8C4111D3B9F1F9
:1021B000400F09DD159810F0240F02D0AAF1340663
:1021C00003E0AAF1170600E0761C00254FF000445A
:1021D00006E05B1E42F1FF3220EA030521EA020419
:1021E000CAF10100B04206DA1B4903980843019086
:1021F000002000900EE0039AC4F3D321E80A0A43BA
:10220000164940EA44500A433146CDE90002684687
:1022100000F087FF159810F0240F0BD01598C00719
:1022200015D13868DDE90012031D3B600068C0E984
:1022300000120CE002A8694600F06AFF1598C0077A
:1022400005D13868029A011D396000680260404675
:10225000F0E6000002FCFFFF0000F07F0000F03F0E
:102260002DE9FF4F92461D4685B04FF00041DDE954
:10227000124BDDE914727F1E01EA4B50414940F0D8
:10228000FF4940EA0108002122F02000492804917A
:1022900002D04E2828D04CE03BA0012607C88DE88C
:1022A0000700A9690698641C88477F1E014606D46A
:1022B0001DF8060018B121F0200181420BD0E96918
:1022C00006988847032E34D0082E32D06FF00100D4
:1022D00009B0BDE8F08F761C032E01D0082EE0D1A6
:1022E000601CCAF80000DCE7A9690698641C8847EE
:1022F0007F1E2AD420F02000412826D1A969069803
:10230000641C88477F1E20D420F020004E281CD15A
:10231000A9690698641C88477F1E48F4002849F480
:102320008009CAF8004001D4282806D0E969069837
:1023300088475FEACB7012D022E0A9690698641C36
:1023400088477F1E01D4002803DAE9690698884788
:10235000BCE72928F1D1641CCAF80040E9E71BF06A
:10236000240F07D028680499031D2B600068C0E97A
:10237000001805E02868021D2A600068C0F8009077
:102380002046A5E70000F07F494E46494E49545982
:102390000000000010B50446AFF300802046BDE801
:1023A0001040FDF76BBFB2F120030AD5C2F1200344
:1023B00001FA02F120FA03F300FA02F041EA030104
:1023C000704700FA03F14FF0000070475FEA400CDD
:1023D00008BF91F0000F4FEA8C234FEAC12243EA75
:1023E00051514FEA1C5018BF00F5F0404FEA300041
:1023F00018BF41F000415FEA6C5C00F02980BCF13D
:10240000FF3F08BF40F080407047130C06BF120426
:102410004FF0100C4FF0000C130E04BF12020CF121
:10242000080C130F04BF12010CF1040C930F04BF2E
:1024300092000CF1020CD30F04BF52000CF1010CFE
:1024400011464FF00002A0F11F00A0EB0C007047F6
:1024500011F0004F08BF704731F000413FF4D5AF95
:102460000B0C06BF09044FF0100C4FF0000C0B0EC4
:1024700004BF09020CF1080C0B0F04BF09010CF199
:10248000040C8B0F04BF89000CF1020CCB0F04BFAE
:1024900049000CF1010CCCF12003A0EB0C0022FA56
:1024A00003F302FA0CF241EA030100F10100704764
:1024B00020F07F4C80EA030023F07F47ACEB07035A
:1024C00003F57C5300F0004003F1FF032DE9804940
:1024D0004FEA154B09B44FEA144325EA0B4E24EAA0
:1024E00003480FF2042606EB132749083E785FEAFB
:1024F000320203FB0667C7F5000707FB06F64FEA43
:1025000054374FEAD64606F1020607FB066CCCF1BB
:10251000005C4FEA1C472CEA074C07FB06F40CFB57
:1025200006F504EB15464FEA961634BF00204FF02F
:1025300000404FEAD13706FB07FC4FEA1C4C0CFB6E
:102540000BF7D21B03FB0CF761EB07010CFB0EF73B
:10255000B0EB074072EB17420CFB08F734BFA2EB5D
:102560000742B2EB074261EB17414FEA0C444FEAD6
:10257000910706FB07FC4FEA1C4C0CFB0BF7B0EB7A
:10258000C74072EB573203FB0CF734BFA2EBC742D4
:10259000B2EBC74261EB57310CFB0EF7B0EBC70053
:1025A00072EB57720CFB08F734BFA2EBC702B2EB19
:1025B000C70261EB5771039F4FEA816141EA9211B3
:1025C00004EBCC044FEAD1374FEA826206FB07FCEA
:1025D00042EA90124FEA80604FEA1C4C0CFB0BF76A
:1025E000D21B03FB0CF761EB07010CFB0EF7B0EB02
:1025F000074072EB17420CFB08F734BFA2EB07420F
:10260000B2EB074261EB17414FEA8C554FEA910755
:1026100004EB9C2406FB07FC4FEA1C4C0CFB0BF75D
:10262000B0EBC74072EB573203FB0CF734BFA2EBA1
:10263000C742B2EBC74261EB57310CFB0EF7B0EB70
:10264000C70072EB57720CFB08F734BFA2EBC7024E
:10265000B2EBC70261EB577115EB4C254FEA816174
:1026600041EA92114FEA82624FEAD13742EA901270
:1026700006FB07FC44F100044FEA80604FEA1C4C63
:102680000CFB0BF7D21B03FB0CF761EB07010CFBF8
:102690000EF7B0EB074072EB17420CFB08F734BFA4
:1026A000A2EB0742B2EB074261EB174115EB1C1599
:1026B0004FEA813141EA92414FEA823242EA904246
:1026C0004FEA80304FEA0C7644F1000448EA0343B5
:1026D0004EEA0B484FF0000EB2EB080C71EB03070B
:1026E00024BF624639464EEB0E0E4FF0000B001829
:1026F000524149414BEB0B0BB2EB080C71EB03075A
:102700007BF1000B24BF624639464EEB0E0E4FF0B4
:10271000000B0018524149414BEB0B0BB2EB080C7C
:1027200071EB03077BF1000B24BF624639464EEB89
:102730000E0E51EA020718BF46F0010616EB0E76A0
:1027400055F1000254F1000103D5BDE88901BDE84F
:102750000088BDE88901BDE80048B619524141EB47
:102760000101A3F10103704780807F7E7D7C7B7A2D
:102770007978777676757473727171706F6E6E6D2D
:102780006C6C6B6A6A6968686766666564646363D3
:1027900062616160605F5F5E5E5D5D5C5C5B5B5A59
:1027A0005A595958585757565655555554545353C6
:1027B00052525251515050504F4F4F4E4E4D4D4D21
:1027C0004C4C4C4B4B4B4A4A4A494949484848476C
:1027D00047474746464645454544444444434343AA
:1027E000434242424241414146EA0646A3F5705304
:1027F0004FEA164646EA42564FEAD22242EA415290
:1028000010B54FEAD121A3F1010300F02FF820F019
:10281000004000F1020C00F0004701EB00501146AF
:10282000BCF5006F40EA070000D210BDBAF1000FFE
:102830000AD01CB503B44FF004004FF004014FF070
:1028400000000FBCBDE810404FF00001BBF1010FCC
:10285000B9BF04484FF0FF310348002140EA0700A8
:1028600010BD00BFFFFFEF7F0000F07F002B9C46F4
:1028700030D477002BD01CB54FEA370703B44FF0A4
:1028800010004FF01001BAF1000F06D0BCF1000F9C
:10289000DCBF40F0080040F008014FF000000FBC22
:1028A000BDE810400BF1010BBBF1010F08BF5FEA5F
:1028B000170722BF12F1010211F101014FF000418F
:1028C00043F1000300F0004043EA00007047F9D3F1
:1028D0005708D0E746EA064613F1400F4FEA16467E
:1028E0001FDD13F1200FDFBF16430A4600212033FE
:1028F0005B42BED0C3F1200746EA064602FA07F75C
:102900004FEA164646EA0706C3F1200722FA03F209
:1029100001FA07F721FA03F14FF0000342EA070238
:10292000A7E746EA020646EA06464FEA164646EAA0
:102930000106BCBF46EA0646360C4FF000034FF0D6
:1029400000024FF0000194E72DE9804C9A4693462F
:1029500070B491E8380007C831EA400C48BF34EA47
:10296000430C03D5FFF7A4FDFFF780FFF0BCBDE8E3
:10297000008C2DE9804C9A46934670B491E838005B
:1029800007C831EA400C48BF34EA430C03D5FFF7CF
:102990008FFDFFF729FFF0BCBDE8008C2DE9804CCE
:1029A0009A46934670B491E8380007C810F0804FFB
:1029B00008BF13F0804F03D100F01AF8FFF756FF5D
:1029C000F0BCBDE8008C2DE9804C9A46934670B46B
:1029D00091E8380007C810F0804F08BF13F0804F0F
:1029E00003D100F005F8FFF7FFFEF0BCBDE8008C56
:1029F00020F07F4780EA030023F07F4C07EB0C03B5
:102A0000A3F57C5300F00040A3F1FE0392F0000F09
:102A100000F0B38095F0000F00F077802DE90149B8
:102A20004FEA11404FEA144621EA004800FB06FC39
:102A300024EA064708FB06F607FB08F800FB07F741
:102A400018EB06484CEB164C4FEA124B18EB0748B4
:102A50004FEA15464CEB174022EA0B4E0BFB06FCE7
:102A600025EA06470EFB06F607FB0EFE0BFB07F7F3
:102A70001EEB064E4CEB164C4FF000061EEB074EBD
:102A80004CEB174B18EB0B0840F1000018EB0E0B4A
:102A900058EB000840F100008F1A4FF000013CBFD6
:102AA000C943661B14BFB5EB040C00213CBFC943EE
:102AB000F61B4FEA17444EEA8E0E27EA04454FEA0A
:102AC0001C4704FB07622CEA074C05FB07F70CFBCD
:102AD00005F604FB0CFC16EB074642EB174216EB1F
:102AE0000C4642EB1C421BEB060658EB020241412E
:102AF00046EA9E0601D5BDE80189B619524141EB6F
:102B00000101A3F10103BDE801894FEA14454FEA31
:102B1000114724EA054621EA074C05FB07F406FBAA
:102B200007F70CFB06F105FB0CFC11EB074144EB2E
:102B300017444FEA124711EB0C4144EB1C4422EAC4
:102B4000074C05FB07F206FB07F70CFB06F605FB37
:102B50000CFC16EB074642EB174216EB0C4642EB19
:102B60001C456A1854F1000148BF7047B61952411C
:102B700041EB0101A3F10103704795F0000F37D03D
:102B80004FEA11424FEA144721EA024624EA074C71
:102B900002FB07F106FB07F70CFB06F402FB0CFC3B
:102BA00014EB074441EB17414FEA154714EB0C4473
:102BB00041EB1C4125EA074C02FB07F506FB07F732
:102BC0000CFB06F602FB0CFC16EB074645EB174523
:102BD00016EB0C4645EB1C42121951F1000148BF9F
:102BE0007047B619524141EB0101A3F1010370474F
:102BF0004FEA14454FEA114724EA054621EA074CFB
:102C000005FB07F106FB07F70CFB06F24FF0000689
:102C100005FB0CFC12EB074241EB174112EB0C4297
:102C200051EB1C4148BF7047921841EB0101A3F1E1
:102C30000103704700BFFEE700BFFEE700BFFEE7ED
:102C400000BFFEE700BFFEE700BFFEE710B54FF490
:102C5000807005F0B7FF30B14FF4807005F0AAFF27
:102C600003A0FDF7A9FB4FF4003002F023F810BDDC
:102C7000414C41524D30210D0A00000010B54FF477
:102C8000806005F09FFF48B14FF4806005F092FF2F
:102C900000BF0221044803F0F4F900BF4FF48000A4
:102CA00002F008F810BD0000000C024010B506F05C
:102CB000FFFF10BD00BFFEE77047000008B53048B9
:102CC000006840F470002E4908602E48006840F00B
:102CD00001002C49086000BF2A48006800F002008B
:102CE0000028F9D000BF27480830006840F0800075
:102CF0002449083108600020009002E00098401C40
:102D0000009000985028F9D31E480830006840F021
:102D100090001C49083108600020009002E00098F3
:102D2000401C009000985028F9D300BF1548083087
:102D3000006820F00300134908310860114800685A
:102D4000114908400F4908600846006820F48020B7
:102D5000086000200B490831086000BF09480830AE
:102D6000006800200028F9D108480649091D0860BC
:102D7000002004490C31086009F00EF808BD00007D
:102D800088ED00E000380240FFFFF6FE103000241E
:102D900010B50121174809F0F8F948B30121154889
:102DA00009F0F0F914480068401C1349086008460F
:102DB00000684FF47A71B0FBF1F201FB120020B908
:102DC00001200E4908700E4908700E48007878B14D
:102DD0000D48007A4FF47A7110FB01F0064909683A
:102DE000B1FBF0F200FB121010B901200749087086
:102DF00010BD000000140040280000202D0000201D
:102E00002E00002010000020000000202C000020D8
:102E100010B51D491D4809F0CEFB10B31B4809F041
:102E2000CDFAC4B21A48008800F40040C8B9184866
:102E3000008800F4804060B10A2C03D000201449BF
:102E4000088020E01248008840F4004010490880C3
:102E500019E00D2C06D10E48008840F480400C4942
:102E6000088010E00A480088C0F30D0009490C549E
:102E700007480088401C0649088008460088C72883
:102E800001DD0020088010BD050305000010014091
:102E900048000020320A002000BFFEE703B401987A
:102EA0004100009850EAC12018BF04204A0D18BF05
:102EB00040F0010040F2FF72B2EB515F08BF40F0FA
:102EC0000200012808BF052002B070470000000082
:102ED00030B52DED048B81B0B0EE408AF0EE608A03
:102EE0006A4651EC180B02F0EBFE00989FED329B06
:102EF0007E300090002821DC53EC192B51EC180B8C
:102F000009F070FC1AD0002140F608004FF00000D4
:102F1000044651EC180B09F01FFC08EE100A40F6AD
:102F2000080004EA00014FF00000B5EEC08AF1EE9F
:102F300010FA04BF0220FDF789FF2DE00098FF285A
:102F400030DB002108464FF0000000F4400553EC50
:102F5000192B51EC180B09F0BBFD8CBF0024012488
:102F60000220FDF773FF9FED168A4DB1002C0CBFB8
:102F70004FF400004FF48000A84218BF9FED118A63
:102F8000042108464FF00000002C01BFB1EE480AB2
:102F900001B0BDEC048B30BDB0EE480A01B0BDEC11
:102FA000048B30BD51EC180B09F0D6FB01B000EEDC
:102FB000100ABDEC048B30BD0000000000000000D2
:102FC0000000807FFFFF7F7F30B583B00446FDF7B0
:102FD00038FF9FED090B05468DED000B00222146C1
:102FE0006846FEF7C5FC2846FDF730FF9DED000B57
:102FF00003B030BD00000000000000000000000031
:1030000030B540F2FF742DED048BF0EE608A18EEBF
:10301000901A85B0B0EE408A9FED2B9B05468DED52
:10302000008B34EA115147D053EC192B51EC180B9B
:1030300009F0D8FB40D02A4651EC180B09F030FEBD
:1030400041EC180B18EE900A8DED008B34EA10500D
:103050001CD053EC192B51EC180B09F0C3FB2BD1EE
:103060000220FDF7F3FE00F043F810EE901A18EE80
:10307000900A8DED020B8DED008B61F31E00039025
:103080009DED020B05B0BDEC048B30BD0220FDF7B9
:10309000DDFE00F01DF810EE901A18EE900A8DED8E
:1030A000020B8DED008B61F31E0003909DED020B72
:1030B00005B0BDEC048B30BD05B0B0EE480AF0EEB3
:1030C000680ABDEC048B30BD000000000000000069
:1030D0009FED050B10B553EC102B51EC100B09F0C4
:1030E000F9FB41EC100B10BD000000000000007067
:1030F0009FED050B10B553EC102B51EC100B09F0A4
:10310000E9FB41EC100B10BD0000000000000010B6
:1031100010B5044691ED000BFFF7DAFE84ED000ACE
:1031200010BD10B5044690ED000B0846FFF768FF90
:1031300084ED000B10BD30380A2801D20120704701
:103140000020704700BF7047816841F0080181602E
:1031500000BF816801F008010029FAD1816841F0BF
:103160000401816000BF816801F004010029FAD1E7
:10317000704730B5012902D0022920D10FE06AB191
:10318000102A0BD8C36A23F47003C362C36A541EA7
:103190004FF4700505EA04542343C36210E06AB19A
:1031A000042A0BD8836B23F440138363836B541E70
:1031B0004FF4401505EA04542343836300E000BF45
:1031C00000BF30BD0649096821F4E021054AC2F874
:1031D00004131146D1F804130143C2F804137047D5
:1031E000042301400020014021B1826842F40062C2
:1031F000826003E0826822F400628260704710B54A
:1032000040F6081005F04AFA40F6081005F034FAC6
:1032100010BD816801F0010119B9816841F0010117
:1032200081607047012902D0022912D108E0836829
:1032300023F040538360836843EA0273836009E0AC
:10324000836823F440138360836843EA02538360F6
:1032500000E000BF00BF704702688A430260704709
:103260000246002013680B4003B1012070470000A4
:1032700010B504460723224600210B4800F078F8D9
:103280000121094800F0CEF800BF02210648FFF7EF
:10329000E7FF0028F9D002210348FFF7DDFF0248CD
:1032A00000F0BCF810BD0000002001402DE9F04105
:1032B00007460C460025002608E03846FFF7D8FFF1
:1032C0000544052000F0A0FD701CC6B2A642F4DB48
:1032D000B5FBF4F0BDE8F08110B541F2081005F03F
:1032E000B9F940F6024005F0B5F9012300220321A7
:1032F000194802F00FFFFFF782FF4FF40030FFF78D
:1033000061FF002000F0CEF800224FF480711348D6
:1033100000F09AF800220221104800F095F80021F0
:103320000E4800F01DF800210C48FFF75DFF002259
:1033300001210A48FFF776FF012211460748FFF7EF
:1033400018FF0648FFF765FF0A2000F05DFD0348FF
:10335000FFF7FAFE10BD0000000802400020014007
:10336000426822F04072426042680A4342607047FD
:10337000F0B51D4606290CDA436B01EB81071F26C9
:10338000BE40B34301EB810602FA06F633434363C2
:1033900022E00C290EDA036B8E1F06EB86071F2630
:1033A000BE40B3438E1F06EB860602FA06F6334391
:1033B000036311E010290FDAC36AA1F10C0606EBD2
:1033C00086071F26BE40B343A1F10C0606EB860616
:1033D00002FA06F63343C3620A2A0CDA046902EBE6
:1033E00042070726BE40B44302EB420605FA06F642
:1033F0003443046111E0122A0FDCC468A2F10A060A
:1034000006EB46070726BE40B443A2F10A0606EBC8
:10341000460605FA06F63443C460F0BD0146C86CA2
:1034200080B27047012902D002290AD104E08268E3
:1034300042F08042826005E0826842F4800282604D
:1034400000E000BF00BF7047AAB101F480731BB158
:10345000436843F48073436001F480631BB14368A5
:1034600043F48063436001F00203CBB1836843F00F
:103470000203836014E001F480731BB1436823F4FA
:103480008073436001F480631BB1436823F480635D
:10349000436001F002031BB1836823F002038360E1
:1034A000704700000649096821F01F01054AC2F86B
:1034B00004131146D1F804130143C2F804137047F2
:1034C000042301400020014010B504462148047245
:1034D000214808F0FDFD204808F038FD052C04D0F7
:1034E0000A2C0ED00F2C24D117E01B4808F0F0FD59
:1034F000194808F02BFD772140F2DB5008F05CFE04
:1035000017E0154808F0E4FD134808F01FFD772187
:1035100040F2E73008F050FE0BE00F4808F0D8FD0D
:103520000D4808F013FD772140F2E73008F044FE23
:1035300000BF00BF0948007810B1074808F0CDFD72
:10354000214607A0FCF738FF0CA008F0D9F805F0D9
:10355000A1FC10BD0000002000140040100000205D
:1035600073616D706C65206379636C652061646A5A
:103570007573743A202564730D0A000053616D70F1
:103580006C65206379636C652061646A757374652A
:10359000640000002DE9F04704460D469046994628
:1035A000AD1E606B00EB153AC5F3C80605F00701C8
:1035B00001208840C7B200BF51460AF1010A2046E7
:1035C00003F0BAFD10B10120BDE8F08700BF00BFD5
:1035D00004F13C00805D384008B1012000E000208B
:1035E000484501D10220EFE704F13C00805D7840BE
:1035F00004F13C0188550120E070A8F10100B0F110
:10360000000800D1E0E77806000E071EE0D1012790
:10361000701C0646B0F5007FD9D30026CCE7000029
:103620002DE9F041044688460020E070401EA0636A
:103630004146204603F080FD10B10420BDE8F08132
:1036400004F23A2002F0DAFF07464AF65520874294
:1036500008D10B222DA104F13C00FDF729F908B98E
:103660000120EBE794F83C50EB2D03D0E92D01D07D
:10367000E82D43D14AF65520874208D1082226A1D9
:1036800004F18E00FDF714F908B90020D6E704F123
:10369000470002F0B3FF06464920055D701E30402A
:1036A00060BBB6F5007F29DBB6F5007F26DC2DB3C5
:1036B000681E284010BB04F14A0002F09FFFE8B1E9
:1036C0004C20005D401E012818D804F14D0002F086
:1036D00095FF98B104F14F0002F090FF802806DAC0
:1036E00004F15C0002F04DFFB0F5803F06D304F119
:1036F000520002F083FF08B100209FE74AF65520F0
:10370000874201D1022099E7032097E7EB769045A5
:103710005846415420202000464154333220202076
:10372000000000002DE9F84F824615461E46DAF8E3
:1037300000000090DAF8500000F104094FF4007224
:10374000002328463146FCF7C0FD07460098B0F834
:103750000AC0624600233846FCF7B7FD834600BF27
:1037600059F8044B14B90020BDE8F88FA34500D2E6
:1037700004E0ABEB040B09F10409F1E700BFD9F851
:1037800000005844F0E70246891ED069801E884236
:1037900001D8002070475389106B03FB0100F9E743
:1037A00038B51D240B48009002E00098401E0090A0
:1037B000802007F0D3F910B900980028F5D10098BF
:1037C00010B91324204638BD034807F0C1F920463C
:1037D000F9E70000A0860100FF07C0002DE9F047CF
:1037E00080460C4604F11A0002F008FF10B10020D8
:1037F000BDE8F087207800F03F00401E00EB80011C
:1038000001EBC0054FF00109002621E01849895D50
:10381000081902F0F3FE0746B9F1000F11D0FF2D91
:103820000BD8384602F0B2F8824629466D1C38F8AB
:10383000110002F0ABF8824501D00020D8E7B9466C
:1038400005E04FF6FF70874201D00020D0E7761CDC
:103850000D2EDBD3207800F0400038B1B9F1000F15
:1038600004D038F8150008B10020C1E70120BFE7F7
:1038700018E600082DE9F04706468A463468BAF192
:10388000000F0AD1D4F81480B8F1000F02D0E0691B
:10389000404516D84FF0010813E05146304602F07B
:1038A000CEFA0746022F02D20120BDE8F087781C2D
:1038B00008B93846F9E7E069B84201D93846F4E773
:1038C000D046A06908B90020EFE7207804284ED13F
:1038D00001224146204602F0EEF805460DB1681C73
:1038E00008B92846E1E701231A4629462046FFF792
:1038F00051FE8146B9F1020F01D10120D5E7B9F19E
:10390000010F02D14FF0FF30CFE7BAF1000F02D123
:103910000220F0710CE0F079022809D108F10100D1
:10392000854205D0B068A8EB0000B0610320F071BB
:10393000F079022869D00AF10100854207D1F069C7
:1039400010B1F069401C00E00220F0615DE0F06918
:1039500008B90120F0612A465146304602F089F844
:103960008146B9F1000F50D10120F0614DE00025F2
:10397000D04519D108F10105E069A84200D8022517
:103980002946304602F05BFA0746012F01D0781C29
:1039900008B9384689E73FB16769022F03D3E06968
:1039A000B84200D9B8460025E5B9454600BF6D1CB0
:1039B000E069A84204D80225454501D9002074E7F2
:1039C0002946304602F03BFA074607B909E0012FC5
:1039D00001D0781C08B9384667E74545E7D1002093
:1039E00063E700BF4FF0FF322946204604F078FA23
:1039F0008146B9F1000F08D1BAF1000F05D02A466F
:103A00005146204604F06CFA8146B9F1000F0DD101
:103A10006561D4E90610801E814202D8A069401E6B
:103A2000A061207940F00100207107E0B9F1010F99
:103A300002D14FF0FF3000E001200546284634E770
:103A40002DE9F34F85B08146069800680290D9F8B9
:103A50000000D0F80CA0002500BF02A808F050FA22
:103A600083460BF1010018B9062007B0BDE8F08FBE
:103A7000BBF5803F05D34FEA1B4228466D1C2AF850
:103A800010201FFA8BF4202C03DB2F2C01D05C2C90
:103A900000D111E0802C06DA21467BA0FCF7ECFE79
:103AA00008B10620E1E7FF2D01D30620DDE7284617
:103AB0006D1C2AF81040D0E700BF202C01DA042644
:103AC00011E002E00298401C0290029800782F2832
:103AD000F8D0029800785C28F4D00026029800788C
:103AE000202800D2042602990698016008E0681E8A
:103AF0003AF81040202C02D02E2C00D002E06D1E8F
:103B0000002DF4D100BF00202AF815000DB90620C1
:103B1000ABE7002700E07F1C3AF817002028FAD016
:103B20001FB93AF817002E2801D146F0030600E02D
:103B30006D1E25B1681E3AF810002E28F8D12022FB
:103B40000B2109F14000FCF7CCFF4FF00008CDF845
:103B500010800820039000BF38467F1C3AF81040C0
:103B600004B966E0202C03D02E2C04D1AF4202D041
:103B700046F00306F0E7DDE90310884201D2AF42C8
:103B800016D103980B2802D146F0030651E0AF424C
:103B900001D046F00306AF4200D94AE02F46082084
:103BA00004900B2003904FEA88604FEA1068D3E737
:103BB000802C0ADB46F00206204601F0E7FE4FF4B7
:103BC0006A71019001F0A8FE0446FF2C11DD0398F4
:103BD000401E0499884204D846F0030603980490D6
:103BE000BAE722120498411C049109F140010A54D9
:103BF00018E024B1214627A0FCF73EFE18B15F244F
:103C000046F003060EE0412C03DB5A2C01DC48F0A1
:103C10000208612C06DB7A2C04DC48F00108A4F1D0
:103C2000200084B20498411C049109F140010C5415
:103C300092E700BF99F84000E52802D1052089F8F5
:103C400040000398082803D14FEA88604FEA1068C3
:103C500008F00C000C2803D008F00300032801D161
:103C600046F0020606F0020048B908F0010008B16B
:103C700046F0100608F0040008B146F008064B2094
:103C800000F809600020F0E62A3A3C3E7C223F7FA3
:103C9000000000002B2C3B3D5B5D00002DE9F04750
:103CA00004460E4640212046FCF723FF8520207065
:103CB000C02084F8200040250020804607464FF0B1
:103CC000010900BFC12228466D1C2254002228464B
:103CD0006D1C225400BFB9F1000F06D036F8170052
:103CE000B0F1000901D0781CC7B26019494607F04D
:103CF00067FBAD1C05F01F000028ECD108F10100A6
:103D000000F0FF0836F817000028DBD184F8237094
:103D100008F101006070304608F0CCFC8246514644
:103D200004F1240007F04CFBBDE8F08710B58CB01F
:103D300004462078643006906078401E0590A07894
:103D40000490E078039020790290607901904FF020
:103D5000FF30099001A8FCF774FF0CB010BD000003
:103D600001460B48007888420FDC094840788842B9
:103D700001DB0120704706488078884205DC044852
:103D8000C078884201DB0120F4E70020F2E7000060
:103D900025E60008014610480079884219DC0E48E3
:103DA0004079884201DB012070470B4880798842C6
:103DB00005DC0948C079884201DB0120F4E70648A8
:103DC000007A884205DC0448407A884201DB012001
:103DD000EAE70020E8E7000025E600084FF0E021D0
:103DE000096941F004014FF0E022116105490860C2
:103DF0001146096941F0010111616FF07F41516184
:103E0000704700004000002010B504464FF47A715E
:103E100004FB01F000F002F810BD000070B503468D
:103E200000224FF0E02675690D4E366803FB06F45C
:103E30004FF0E026B16910E04FF0E026B06988420B
:103E40000BD0884202D20E1A324402E02E1A0E44DF
:103E500032440146A24200D300E0EDE700BF70BD4E
:103E6000400000202DE9F04104460E46D4F80080C1
:103E70000021204600F06FFB05465DBB002700BF18
:103E80004046A16B03F058F9054605B121E098F8CA
:103E90000000042805D1E06B0078012121EAD01050
:103EA00009E0E06B0078E52802D0E06B007808B903
:103EB000012000E0002020B1781C0746B04201D16B
:103EC00007E000270121204600F03FF90546002DBC
:103ED000D6D000BF042D00D107252846BDE8F081CB
:103EE0002DE9F04704468946204607F0ABFE10B1A5
:103EF0000120BDE8F08749462046FFF744FC07460D
:103F0000A7634FF4007104F13C00FCF714FE6089D4
:103F10004FF40041B1EB402F01D8084601E0608921
:103F2000400206464FF0000800E07608B6F5007F34
:103F300005D9304601F0ADFCB0F10008F5D0B6F57A
:103F4000007F16D931464046FCF7D3FD760A00259E
:103F500000E035446089A84207D97A196078334671
:103F6000414600F0EFFB0028F3D0404601F098FCFA
:103F700010E004F13C080126002500E0354460898A
:103F8000A84207D97A1960783346414600F0DAFB37
:103F90000028F3D06089A84201D00120A9E70020C1
:103FA000A7E72DE9F04F85B004462568002120469B
:103FB00000F0D1FA07461FB1384605B0BDE8F08FD2
:103FC000287804284CD1E86808F074FB01903EE0A2
:103FD000296901F1240002F011FB0199884200D007
:103FE00035E0286990F8230003904FF0400A002044
:103FF00002901FE00AF01F0008B90AF1020A2969BD
:1040000001EB0A0002F0FAFA009001F0BFFC8346CF
:10401000EA68029932F8110001F0B8FC834500D03B
:104020000BE00398401EC0B203900AF1020A029806
:10403000401C029003980028DCD100BF039828B9E7
:10404000E968029831F8100000B906E000BF0021CD
:10405000204600F0EAF8071EBAD000BF3846ACE7A9
:104060004FF0FF09CDF810904FF0FF30E06400BF33
:104070002846A16B03F060F8074607B162E0E06BE9
:1040800006780EB904275DE0E06BC07A00F03F08C7
:1040900084F80680E52E05D008F0080040B1B8F19C
:1040A0000F0F05D04FF0FF094FF0FF30E06442E002
:1040B000B8F10F0F22D14B20005D00F04000A0BBF3
:1040C00006F0400038B1E06B407B049006F0BF067C
:1040D000B146206BE0644E450CD1E06B417B049807
:1040E000814207D1E16BE868FFF778FB10B1A9F1D5
:1040F000010000E0FF2000F0FF091CE0B9F1000F13
:1041000006D1E06B07F047FD0499884200D119E021
:104110004B20005D00F0010040B90B2204F140018A
:10412000E06BFCF7C5FB08B90CE004E04FF0FF09B9
:104130004FF0FF30E0640021204600F006F807460B
:10414000002F95D000BF384637E72DE9F0410446EF
:1041500088462768206B00F120063878042801D1B2
:10416000800601E04FF40010B04201D80020A063A7
:10417000A06B10B90420BDE8F081C6F30800002848
:104180004AD1A06B401CA063606B38B93889B0EB92
:10419000561F41D80020A0630420ECE77889401E18
:1041A00000EA5620002837D12046616B01F047FE17
:1041B0000546012D01D80220DDE7681C08B9012061
:1041C000D9E7F869A84221D8B8F1000F03D100203F
:1041D000A0630420CFE72046616BFFF74BFB054649
:1041E0000DB90720C7E7012D01D10220C3E7681CE4
:1041F00008B90120BFE729463846FFF771FE08B12C
:104200000120B8E7E07940F00400E07165632946D9
:104210003846FFF7B8FAA0632663C6F3080107F132
:104220003C000844E0630020A5E72DE9F05F044668
:104230008846042627684FF0FF0AD3466CE03846CC
:10424000A16B02F079FF064606B168E0E06B0578E5
:104250000DB9042663E03878042814D1B8F1000FB2
:1042600002D0832D51D15AE0852D4ED1206BE064D0
:10427000204602F079FA064626B93869007900F03E
:104280003F00A0714BE0E06BC07A00F03F0984F87A
:104290000690E52D0AD02E2D08D029F02000082800
:1042A00001D1012000E00020404502D04FF0FF0A7C
:1042B0002BE0B9F10F0F1CD105F0400038B1E06BD5
:1042C00090F80DB005F0BF05AA46206BE064554597
:1042D0000BD1E06B407B584507D1E16BF86803F0E8
:1042E000BFFC10B1AAF1010000E0FF2000F0FF0ABE
:1042F0000BE0BAF1000F04D1E06B07F04CFC58451D
:1043000002D04FF0FF30E06409E000212046FFF7C3
:104310001CFF064606B102E0A06B00288FD100BF4B
:104320000EB10020A0633046BDE8F09F2DE9F04FAC
:1043300099B0044626684B20005D00F0A00018B13B
:10434000062019B0BDE8F08F4FF0000B01E00BF133
:10435000010BF06830F81B000028F8D130780428F1
:1043600066D10BF10E000F21B0FBF1F000F1020954
:1043700049462046FFF776FD05460DB12846E0E7A1
:10438000A9F101002022216B02FB1010E064E0790A
:1043900000F00400002845D0E07920F00400E0712E
:1043A000204601F04BFB05460DB12846C9E74FF00A
:1043B000FF322046616B01F05CFB05460DB12846DB
:1043C000BFE7A06870B32146684602F0ADF9054624
:1043D0000DB12846B5E770894002D4E904311818B8
:1043E00041F10001C4E90401D4E90473316901F128
:1043F00038003A4606F0B6FFD4E90473316901F19A
:1044000028003A4606F0AEFFE07940F0010031693D
:1044100081F82100684607F085FB05460DB1284666
:104420008FE700BFD6E90310FFF738FC002088E7CC
:10443000D4E91112206C15AB07C39DF85F0000F0A2
:10444000010028B340214B2001554FF0010A0EE036
:10445000534615A904F14000F26801F077FC2046AC
:10446000FFF79FFD054605B104E00AF1010ABAF124
:10447000640FEDD300BFBAF1640F01D1072060E7EC
:10448000042D01D028465CE79DF85F104B200155B4
:104490009DF85F0000F0020030B10BF10C000D211F
:1044A000B0FBF1F0401C00E0012081464946204667
:1044B000FFF7D8FC054675BBA9F10100B0F1000972
:1044C00029D0206BA0EB4911204600F044F80546A6
:1044D0000DBB04F1400007F05EFB149000BF3046B6
:1044E000A16B02F029FE054605B113E009F0FF02B9
:1044F000E16BF068149B03F095FD0120F070002142
:104500002046FFF722FE054625B9A9F10100B0F1CA
:104510000009E4D100BFE5B93046A16B02F00CFE02
:104520000546B5B92021E06BFCF7E3FAE06B216C9E
:104530000160616C4160B4F84810018194F84A1040
:1045400081724B20005D00F01800E16B08730120C0
:10455000F0702846F5E62DE9F04104460D46266840
:104560003078042801D1800601E04FF40010A84201
:1045700002D905F01F0010B10220BDE8F0812563CB
:10458000A7682FB93078032802DBF76A0020E071B2
:1045900047B93089B0EB551F01D80220EDE7F06A2A
:1045A000A0631CE070894FEA402811E0394620469C
:1045B00001F045FC0746781C08B90120DDE7022F11
:1045C00002D3F069B84201D80220D6E7A5EB08056E
:1045D0004545EBD239463046FFF7D5F8A06367630F
:1045E000A06B08B90220C8E7A06B00EB5520A063C0
:1045F000C5F3080106F13C000844E0630020BCE775
:1046000070B50446002514B1012C07D103E006F073
:1046100003FB054604E002F0BDFE01E0012500BFFA
:1046200000BF1D2D02D00DB1012070BD0020FCE7A0
:104630002DE9F04106460F461546EEB937B1012F78
:1046400011D0022F04D0032F13D106E0002412E072
:104650004FF40070286000240DE01848B0F84000C6
:104660002880002407E005F01DF8400028600024A1
:1046700001E0042400BF1DE0012E1AD137B1012F43
:104680000FD0022F04D0032F10D106E000240FE03A
:104690004FF40070288000240AE0082028800024BD
:1046A00006E04FF490402860002401E0042400BF9D
:1046B00000E001242046BDE8F0810000101D00202C
:1046C0002DE9F04180460E4614461D46002715B9D7
:1046D0000420BDE8F081B8F1000F03D0B8F1010F5C
:1046E00023D111E02A462146304606F069F80746F4
:1046F00007E006F091FA2A462146304606F060F8B7
:1047000007461D2FF5D112E00BE0002000EB4421FD
:104710004FF40072304602F099FE641C06F50076F4
:104720006D1E002DF1D1002701E0012700BF00BF61
:104730000FB11D2F01D10020CBE70120C9E70146B1
:10474000002070472DE9F04180460E4614461D4674
:10475000002715B90420BDE8F081B8F1000F03D09F
:10476000B8F1010F23D111E02A462146304606F068
:104770000DF9074607E006F04FFA2A462146304673
:1047800006F004F907461D2FF5D112E00BE00020DA
:1047900000EB44214FF40072304602F0FBFE641C33
:1047A00006F500766D1E002DF1D1002701E00127EE
:1047B00000BF00BF0FB11D2F01D10020CBE70120AA
:1047C000C9E710B501EB4102D30000F11002D25845
:1047D00022F0010301EB4102D40000F11002135159
:1047E00010BD10B501EB4102D30000F11002D25808
:1047F00042F0010301EB4102D40000F11002135119
:1048000010BD30B5134601EB4104E50000F1100482
:10481000625922F0606242EA436201EB4104E50022
:1048200000F11004625130BD10B501EB4102D3001C
:1048300000F11002D25822F0010301EB4102D40032
:1048400000F110021351002301EB4102D40000F1EA
:104850001002135101EB4102D40000F11402135174
:1048600001EB4102D40000F11802135101EB4102A7
:10487000D40000F11C02135101EB4102D40000F1FD
:1048800020021351212301EB4102D40000F1240244
:10489000135104290CDA01EB41025300C1F3400229
:1048A00003EB82033D229A4083681A4382600DE045
:1048B0000A1FD1B201EB41025300C1F3400203EBE6
:1048C00082033D229A40C3681A43C26010BD10B5EE
:1048D00004290CDA01EB41035C00C1F3400304EB53
:1048E000830302FA03F38468234383600DE00B1F04
:1048F000D9B201EB41035C00C1F3400304EB830335
:1049000002FA03F3C4682343C36010BD10B5034625
:1049100004290FDA01EB41004400C1F3400004EB2D
:10492000800402FA04F01C68204008B1012010BD88
:104930000020FCE7081FC1B201EB41004400C1F3B5
:10494000400004EB800402FA04F05C68204008B1E7
:104950000120ECE70020EAE730B572B901EB410332
:10496000DC0000F110031B5923F0200401EB41038C
:10497000DD0000F110035C510DE001EB4103DC00B0
:1049800000F110031B5943F0200401EB4103DD004B
:1049900000F110035C5130BD70B501EB4104E5003E
:1049A00000F124046459156A45F004052C4301EB19
:1049B0004105EE0000F12405AC5101EB4104E60095
:1049C00000F118041568A55101EB4104E60000F15F
:1049D0001C04D568A55101EB4104E60000F1140464
:1049E000D56AA55101EB4104E50000F110046359BB
:1049F000414C2340156954682C43156B2C43956A30
:104A00002C4395692C43D5692C43234301EB410486
:104A1000E50000F110046351946874B901EB41049E
:104A2000E50000F11004645944F4007501EB410401
:104A3000E60000F11004A5511FE09468012C0ED18E
:104A400001EB4104E50000F11004645924F4007501
:104A500001EB4104E60000F11004A5510DE001EB6B
:104A60004104E50000F11004645944F4004501EBF1
:104A70004104E60000F11004A551546974B901EB3A
:104A80004104E50000F11004645944F4806501EB31
:104A90004104E60000F11004A5510DE001EB4104D2
:104AA000E50000F11004645924F4806501EB410431
:104AB000E60000F11004A551546A74B901EB4104F9
:104AC000E50000F11004645944F4807501EB4104E1
:104AD000E60000F11004A5510DE001EB4104E500F2
:104AE00000F11004645924F4807501EB4104E600E0
:104AF00000F11004A55170BD3F871CFE30B58DB08C
:104B000004460D46012203212748FFF7E0FE042258
:104B100003212548FFF7DBFE082203212248FFF787
:104B2000D6FE102203212048FFF7D1FE20220321C8
:104B30001D48FFF7CCFE03211B48FFF742FE03216F
:104B40001948FFF771FE19480090039400200A905D
:104B50000B9001200290002005904FF480500190AE
:104B6000800004904FF440300C904FF400100790F8
:104B70008000069003200890012009906A460321D6
:104B80000948FFF709FF012203210748FFF7E4FE68
:104B9000042203210448FFF734FE03210248FFF7F3
:104BA00020FE0DB030BD000000640240802C0140AA
:104BB00030B58DB004460D46012203212748FFF78A
:104BC00086FE042203212548FFF781FE08220321E7
:104BD0002248FFF77CFE102203212048FFF777FED2
:104BE000202203211D48FFF772FE03211B48FFF717
:104BF000E8FD03211948FFF717FE194800900394B8
:104C000040200A9000200B90012002900020059087
:104C10004FF480500190800004904FF440300C908D
:104C20004FF40010079080000690012009900320A7
:104C300008906A4603210948FFF7AEFE01220321CE
:104C40000648FFF789FE042203210448FFF7D9FD37
:104C500003210248FFF7C5FD0DB030BD00640240DE
:104C6000802C014010B5FCEEC00A10EE904AA1B2B3
:104C700000EE901AF8EE600A70EE600A9FED0C1AD2
:104C800060EE810AFCEEE00A10EE904AA3B20C0A34
:104C9000047041701C0A8470C37010EE102A140E48
:104CA0000471140C4471140A8471C27110BD0000A7
:104CB000000080470149086070470000143C014033
:104CC00038B50546284600F0CEFB04464CB9694687
:104CD000284607F0B4FC04461CB900202860204692
:104CE00038BD2046FCE72DE9FC4780460C4691463E
:104CF00000254646641E13E06B46012201A9484682
:104D000000F09DFA0098012800D00BE09DF8047097
:104D100000BF06F8017B6D1C0A2F00D102E000BF26
:104D2000A542E9DB00BF0020307015B14046BDE868
:104D3000FC870020FBE72DE9F141A3B0022201A985
:104D400023A801F0BFFF0446002C7ED101980E90ED
:104D50004FF48C6000F09DFD06461EB9112024B072
:104D6000BDE8F0810198C66006F500700199086100
:104D70000EA8239900F02DFF044604B9082400BFB3
:104D8000042C7ED101980290002102A8FEF772FD4A
:104D90000546002405B90724012D00D10224681C12
:104DA00000B9012401F015F98046002C3BD12946B9
:104DB0000198FFF795F80446ACBB019800780428E9
:104DC0002DD020220B2101983C30FBF78AFE2E20AB
:104DD000019981F83C001021019880F84710414664
:104DE0000198523006F0B2FA2A4601993C310198F6
:104DF00006F09AFA202201993C3101985C30FBF7C9
:104E00003EFE2E21019880F85D10109F3A460199D0
:104E10005C31019806F088FA01200199C8700EA84B
:104E2000FFF784FA0446002C4CD10198007804283E
:104E300031D10199096901F10C00414606F086FA69
:104E40000199096901F1340000E043E0294606F0C8
:104E50007DFA019A52895102019A126902F13800D1
:104E600006F074FA019A52895102019A126902F10C
:104E7000280006F06BFA03200199096981F82100E6
:104E800000E024E010200199096908710EA806F0DD
:104E900049FE044610E01D9901F11600414606F056
:104EA00055FA2A461D99019806F03EFA10201D99E0
:104EB000C87201200199C8704CB9019806F07CFEB7
:104EC000044604E00022294602A803F01DFD3046F6
:104ED00000F0E6FC204642E7F7B582B0164603989C
:104EE000019001A801F077F80546002D02DA0B20A9
:104EF00005B0F0BD0C4850F825400CB100202070E2
:104F0000029810B10020029908700749029841F8F0
:104F100025000EB90020EBE7002202A903A801F04A
:104F2000D1FE07463846E3E7740000202DE9F74F2D
:104F30009AB0044616461CB909201DB0BDE8F08F92
:104F400006F03F06324605A91BA801F0BBFE054648
:104F5000002D7BD1059806904FF48C6000F099FCF1
:104F60008346BBF1000F01D11120E6E70598C0F898
:104F70000CB00BF500700599086106A81B9900F0AC
:104F800028FE05462DB99DF8630000F0800000B1B1
:104F9000062506F01C0000287ED045B1042D03D163
:104FA00006A8FFF7C3F9054646F008060AE09DF893
:104FB0001E0000F0110008B1072503E006F0040010
:104FC00000B10825002D40D106F0080000283CD093
:104FD0000598007804283AD1059820602146059864
:104FE00001F0B2F905990969881C1E21FBF781FDC2
:104FF0000599096901F126001A21FBF77AFD2020A5
:1050000005990969087100F0E4FF019005990969A3
:1050100001F10800019906F099F901200599096943
:1050200081F8210006A806F07DFD0546002D5CD123
:10503000A068002859D000222046A16803F064FC33
:105040000546A068401E059948614EE0F2E000F078
:10505000C0FF0390159901F10E00039906F076F94F
:10506000159901F11600039906F070F91599059844
:1050700001F074FA049020201599C8720022159945
:10508000059806F051F9159901F11C00002106F070
:105090005DF90120059900E016E0C870049820B37E
:1050A0000598806B0290002206A8049903F02CFC5E
:1050B0000546D5B90299059802F03EF805460498D0
:1050C000401E0599486110E07DB99DF81E0000F072
:1050D000100008B1042508E006F0020028B19DF890
:1050E0001E0000F0010000B107254DB906F00800D0
:1050F00008B146F040060598806BA0641598E064FE
:10510000002D7DD10598007804280FD108982062E1
:105110000A9820F0FF009DF81F100843606219985C
:10512000A0622146059801F00FF90CE01599059849
:1051300001F014FAA060159901F11C0001F021FAA8
:105140000021C4E90401002020650598206005982D
:10515000C088A08084F83060002084F8310060644A
:105160000021A163E1634FF4007104F15400FBF7E7
:10517000E2FC06F02000002859D00023D4E90410F6
:1051800059405840014352D0D4E90401C4E90E010A
:10519000059840894FEA4029D4F808A0D4E904785A
:1051A00010E05146204600F04AFE8246BAF1010F57
:1051B00000D802250AF1010000B90125B7EB090763
:1051C00068F100082DB90020B9EB070170EB080069
:1051D000E7D3C4F840A09DB94FF4007200233846CD
:1051E0004146FBF772F800214A404B401A431ED05B
:1051F00051460598FEF7C7FA0290029818B900E0E8
:1052000015E0022513E04FF40072002338464146B2
:10521000FBF75BF8029908446064626C0599487872
:10522000012304F15401FFF74BFA00B10125584660
:1052300000F036FB0DB10020206028467DE62DE908
:10524000FF4F87B0044615460898039000210A983E
:10525000016005A9204607F0F2F90690069818B9F2
:1052600094F83100069018B106980BB0BDE8F08FA5
:1052700094F8300000F0010008B90720F5E7D4E900
:105280000E23D4E904108F1A60EB0308791B78F120
:10529000000000D23D46E1E0D4E90E014FF4007277
:1052A0000023CDE90001FBF710F800214A404B40F4
:1052B0001A437DD1D4E90E014FF400720023CDE9E9
:1052C0000001FBF702F805994989491E00EA010A25
:1052D000BAF1000F2BD10023D4E90E0158405940F8
:1052E000084302D1A068049011E0206D50B1D4E9C8
:1052F0000E0102460B46CDE900012046FEF712FAE8
:10530000049004E02046216C00F099FD049004987C
:10531000022803D2022084F83100A6E70498401C3A
:1053200018B9012084F831009FE704982064216CAB
:105330000598FEF728FA8146B9F1000F03D1022043
:1053400084F8310091E7D1444FEA552BBBF1000FAF
:105350002FD00AEB0B0005994989884203D905989B
:105360004089A0EB0A0B059948785B464A460399A9
:10537000FFF7A6F918B1012084F8310075E794F819
:10538000300000F0800080B1606CA0EB090058454F
:105390000BD2616CA1EB0901039A02EB41204FF49F
:1053A000007204F15401FBF725FB4FEA4B2645E060
:1053B00029E0606C484524D094F8300000F080006B
:1053C00090B1626C05994878012304F15401FFF70C
:1053D000B9F918B1012084F8310046E794F830009B
:1053E00000F07F0084F830000599487801234A4690
:1053F00004F15401FFF764F918B1012084F8310079
:1054000033E7C4F84490208FC0F30800C0F500765D
:10541000AE4200D92E46D4E90E014FF400720023AB
:10542000CDE90001FAF751FF04F15400104432466F
:10543000014602900398FBF7DDFA00BFAD1B0A9806
:10544000006881190A980160039830440390D4E9F8
:105450000E10891940F10000C4E90E10002D7FF4F0
:105460001BAF002001E72DE9F04796B0044614A9D0
:10547000204607F0E4F80546002D7ED194F8300070
:1054800000F04000002878D094F8300000F0800050
:1054900090B1626C14994878012304F15401FFF72C
:1054A00051F918B1012016B0BDE8F08794F830002A
:1054B00000F07F0084F8300000F08BFD82461498E5
:1054C0000078042875D1204600F0B8FA054635B9B1
:1054D0004FF0FF322046216C00F0CBFA0546002D3C
:1054E000CBD14FF48C6000F0D4F98146B9F1000FB4
:1054F00001D11120D7E71498C0F80C9009F500707D
:10550000149908612146684601F00EF90546002D00
:105510004AD114980069007940F020001499096973
:105520000871E07940F001001499096981F82100BF
:10553000A168149A126902F1340005F007FFD4E95A
:1055400004731499096901F138003A4605F00AFF1D
:10555000D4E904731499096901F128003A4605F069
:1055600001FF1499096901F10C00514605F0EEFEA6
:10557000002014990969487500E046E0149909690A
:1055800001F11000002105F0E1FE684606F0CAFABC
:1055900005464DB9149806F00FFB054694F8300007
:1055A00000F0BF0084F83000484600F079F92CE0A4
:1055B000FFE7A16C149801F0BFFD05462DBBE66C1A
:1055C000F07A40F02000F0723146A268206805F0C1
:1055D000ABFE06F11C00216905F0B8FE514606F14C
:1055E000160005F0B3FE002106F1120005F0E8FEFA
:1055F00001201499C870149806F0DEFA054694F854
:10560000300000F0BF0084F8300028464BE72DE959
:10561000FF4F87B0044615469B460898039000202C
:10562000CBF8000004A9204607F009F8059005987A
:1056300018B994F83100059018B105980BB0BDE881
:10564000F08F94F8300000F0020008B90720F5E769
:1056500004980078042807D0A06B4019A16B8842F9
:1056600002D2A06BC0F1FF3507E1D4E90E014FF47F
:1056700000720023CDE90001FAF727FE00214A401D
:105680004B401A437CD1D4E90E014FF40072002341
:10569000CDE90001FAF719FE04994989491E00EA8B
:1056A000010ABAF1000F3AD10023D4E90E10594093
:1056B0005840014309D1D4F80880B8F1000F16D141
:1056C0002046FEF7D7F8804611E0206D50B1D4E9AE
:1056D0000E0102460B46CDE900012046FEF722F8F6
:1056E000804604E02046216CFEF7C4F88046B8F1FD
:1056F000000F00D1C4E0B8F1010F03D1022084F8FB
:1057000031009BE708F1010018B9012084F831004D
:1057100094E7C4F84080A06808B9C4F8088094F8F9
:10572000300000F0800090B1626C04994878012349
:1057300004F15401FFF706F818B1012084F8310094
:105740007CE794F8300000F07F0084F83000216C92
:105750000498FEF718F807461FB9022084F83100B4
:105760006CE757444FEA5529B9F1000F2FD00AEBE7
:10577000090004994989884205D90498408900E0C4
:105780003DE0A0EB0A09049948784B463A46039954
:10579000FEF7D8FF18B1012084F831004EE7606CA5
:1057A000C01B484510D2606CC01B039A02EB40211D
:1057B0004FF4007204F15400FBF71CF994F8300028
:1057C00000F07F0084F830004FEA492637E0606C33
:1057D000B84213D0D4E90431D4E90E20D21A88415A
:1057E0000CD20499487801233A4604F15401FEF79B
:1057F00067FF18B1012084F831001FE76764208F2C
:10580000C0F30800C0F50076AE4200D92E46D4E9B8
:105810000E014FF400720023CDE90001FAF755FDA7
:1058200004F154001044324602900399FBF7E2F869
:1058300094F8300040F0800084F8300000BFAD1BC9
:10584000DBF800003044CBF80000039830440390AC
:10585000D4E90E20921940F10000C4E90E20D4E9E9
:105860000E31D4E90420D21A884102D2D4E90E01C3
:1058700001E0D4E90401C4E90401002D7FF4F5AE90
:1058800000BF94F8300040F0400084F83000002061
:10589000D4E610B504462146002001F045FD10BDB8
:1058A00010B504462146002001F02CFD10BD00007B
:1058B000F0B502460E4600200021802A01DA10468B
:1058C00027E0B6F56A7F24D1124B45F22057002518
:1058D000102414E0A7EB050C05EB5C014FEA410C2A
:1058E00033F81CC0944500D10BE04FEA410C33F86B
:1058F0001CC0944501DA0D4600E00F46641E002CE2
:10590000E8D100BF2CB14FF0010C0CEB410C33F887
:105910001C00F0BDF43A02082DE9F04102460F46A2
:1059200000200021802A01D290B22BE0B2F5803F06
:1059300028D2B7F56A7F25D195B2134B45F2205C8A
:105940000026102414E0ACEB060806EB58014FEAE1
:10595000410833F81880A84500D10BE04FEA410810
:1059600033F81880A84501DA0E4600E08C46641E24
:10597000002CE8D100BF2CB14FF0010808EB410822
:1059800033F81800BDE8F08170E6000870B5B0F596
:10599000803F4DD281B2B1F5805F01DA254E00E043
:1059A000254E324600BF32F8023B0BB1994200DA75
:1059B0003CE032F8024B2512E4B21E198E4230DD73
:1059C000092D2CD2DFE805F005090F13171B1F2343
:1059D0002700CE1A32F8161021E0CE1A06F0010682
:1059E0008E1BB1B21BE0A1F11006B1B217E0A1F11C
:1059F0002006B1B213E0A1F13006B1B20FE0A1F17F
:105A00001A06B1B20BE001F10806B1B207E0A1F14C
:105A10005006B1B203E0A1F5E356B1B200BF00BF3A
:105A200004E0002DBFD102EB4402BCE700BF0846F2
:105A300070BD0000788F03086A9103082DE9F041DA
:105A40000446E079032812D1A568A7690BE06A1C17
:105A50002946206802F044FA064616B13046BDE8F1
:105A6000F0816D1C7F1E002FF1D10020E07100201D
:105A7000F5E72DE9F04104460D46174616E0E369C7
:105A8000012B03D9E369EB1A9B1C00E03B461A4645
:105A9000E369EB1A591C206802F022FA064616B197
:105AA0003046BDE8F081E069401EE061E069002811
:105AB000E5D100BFF5E72DE9F74F05460E46B61EC6
:105AC000E869801EB04200D800263446A2464FF056
:105AD000000B00BF686B00EB1431284601F02CFB73
